{
  "_format": "hh-sol-artifact-1",
  "contractName": "MainContract",
  "sourceName": "contracts/MainContract.sol",
  "abi": [
    {
      "inputs": [
        {
          "internalType": "contract IERC20",
          "name": "_hammerTokenAddress",
          "type": "address"
        },
        {
          "internalType": "contract IERC20",
          "name": "_ropstamTokenAddress",
          "type": "address"
        },
        {
          "internalType": "contract IERC721",
          "name": "_openApesTokenAddress",
          "type": "address"
        },
        {
          "internalType": "address",
          "name": "_owner",
          "type": "address"
        },
        {
          "internalType": "address",
          "name": "_ropstamHolderAddress",
          "type": "address"
        },
        {
          "internalType": "address",
          "name": "_hammerHolderAddress",
          "type": "address"
        },
        {
          "internalType": "address",
          "name": "_openApesHolderAddress",
          "type": "address"
        }
      ],
      "stateMutability": "nonpayable",
      "type": "constructor"
    },
    {
      "anonymous": false,
      "inputs": [
        {
          "indexed": true,
          "internalType": "address",
          "name": "buyer",
          "type": "address"
        },
        {
          "indexed": false,
          "internalType": "uint256",
          "name": "_amount",
          "type": "uint256"
        }
      ],
      "name": "PurchasedHammerToken",
      "type": "event"
    },
    {
      "anonymous": false,
      "inputs": [
        {
          "indexed": true,
          "internalType": "address",
          "name": "buyer",
          "type": "address"
        },
        {
          "indexed": false,
          "internalType": "uint256",
          "name": "_amount",
          "type": "uint256"
        }
      ],
      "name": "PurchasedOpenApesToken",
      "type": "event"
    },
    {
      "anonymous": false,
      "inputs": [
        {
          "indexed": true,
          "internalType": "address",
          "name": "buyer",
          "type": "address"
        },
        {
          "indexed": false,
          "internalType": "uint256",
          "name": "_amount",
          "type": "uint256"
        }
      ],
      "name": "PurchasedRopstamToken",
      "type": "event"
    },
    {
      "inputs": [
        {
          "internalType": "address",
          "name": "userAddress",
          "type": "address"
        }
      ],
      "name": "addAdmin",
      "outputs": [],
      "stateMutability": "nonpayable",
      "type": "function"
    },
    {
      "inputs": [
        {
          "internalType": "uint256",
          "name": "_amount",
          "type": "uint256"
        }
      ],
      "name": "buyHammer",
      "outputs": [],
      "stateMutability": "nonpayable",
      "type": "function"
    },
    {
      "inputs": [
        {
          "internalType": "uint256",
          "name": "_amount",
          "type": "uint256"
        },
        {
          "internalType": "string",
          "name": "uri",
          "type": "string"
        }
      ],
      "name": "buyOpenApes",
      "outputs": [],
      "stateMutability": "nonpayable",
      "type": "function"
    },
    {
      "inputs": [
        {
          "internalType": "uint256",
          "name": "_amount",
          "type": "uint256"
        }
      ],
      "name": "buyRopstamToken",
      "outputs": [],
      "stateMutability": "payable",
      "type": "function"
    },
    {
      "inputs": [
        {
          "internalType": "address payable",
          "name": "_withdrawalAddress",
          "type": "address"
        }
      ],
      "name": "withdrawEther",
      "outputs": [
        {
          "internalType": "bool",
          "name": "",
          "type": "bool"
        }
      ],
      "stateMutability": "payable",
      "type": "function"
    }
  ],
  "bytecode": "0x60806040523480156200001157600080fd5b5060405162001a7a38038062001a7a83398181016040528101906200003791906200031e565b600160008190555086600160006101000a81548173ffffffffffffffffffffffffffffffffffffffff021916908373ffffffffffffffffffffffffffffffffffffffff16021790555084600260006101000a81548173ffffffffffffffffffffffffffffffffffffffff021916908373ffffffffffffffffffffffffffffffffffffffff16021790555085600360006101000a81548173ffffffffffffffffffffffffffffffffffffffff021916908373ffffffffffffffffffffffffffffffffffffffff1602179055506001600460008673ffffffffffffffffffffffffffffffffffffffff1673ffffffffffffffffffffffffffffffffffffffff16815260200190815260200160002060006101000a81548160ff02191690831515021790555082600660006101000a81548173ffffffffffffffffffffffffffffffffffffffff021916908373ffffffffffffffffffffffffffffffffffffffff16021790555081600760006101000a81548173ffffffffffffffffffffffffffffffffffffffff021916908373ffffffffffffffffffffffffffffffffffffffff16021790555080600860006101000a81548173ffffffffffffffffffffffffffffffffffffffff021916908373ffffffffffffffffffffffffffffffffffffffff16021790555050505050505050620003d1565b600080fd5b600073ffffffffffffffffffffffffffffffffffffffff82169050919050565b60006200025c826200022f565b9050919050565b600062000270826200024f565b9050919050565b620002828162000263565b81146200028e57600080fd5b50565b600081519050620002a28162000277565b92915050565b6000620002b5826200024f565b9050919050565b620002c781620002a8565b8114620002d357600080fd5b50565b600081519050620002e781620002bc565b92915050565b620002f8816200024f565b81146200030457600080fd5b50565b6000815190506200031881620002ed565b92915050565b600080600080600080600060e0888a03121562000340576200033f6200022a565b5b6000620003508a828b0162000291565b9750506020620003638a828b0162000291565b9650506040620003768a828b01620002d6565b9550506060620003898a828b0162000307565b94505060806200039c8a828b0162000307565b93505060a0620003af8a828b0162000307565b92505060c0620003c28a828b0162000307565b91505092959891949750929550565b61169980620003e16000396000f3fe60806040526004361061004a5760003560e01c80631bd245a11461004f5780631d749fd91461007857806370480275146100a1578063af933b57146100ca578063ce47e4ff146100fa575b600080fd5b34801561005b57600080fd5b5061007660048036038101906100719190610e48565b610116565b005b34801561008457600080fd5b5061009f600480360381019061009a9190610ea4565b610373565b005b3480156100ad57600080fd5b506100c860048036038101906100c39190610f2f565b61083f565b005b6100e460048036038101906100df9190610f9a565b61094e565b6040516100f19190610fe2565b60405180910390f35b610114600480360381019061010f9190610ea4565b610a58565b005b6000600160009054906101000a900473ffffffffffffffffffffffffffffffffffffffff1673ffffffffffffffffffffffffffffffffffffffff166370a08231336040518263ffffffff1660e01b8152600401610173919061100c565b602060405180830381865afa158015610190573d6000803e3d6000fd5b505050506040513d601f19601f820116820180604052508101906101b4919061103c565b9050600081146101f9576040517f08c379a00000000000000000000000000000000000000000000000000000000081526004016101f0906110ec565b60405180910390fd5b6064831461023c576040517f08c379a00000000000000000000000000000000000000000000000000000000081526004016102339061117e565b60405180910390fd5b600360009054906101000a900473ffffffffffffffffffffffffffffffffffffffff1673ffffffffffffffffffffffffffffffffffffffff166323b872dd3330866040518463ffffffff1660e01b815260040161029b939291906111ad565b6020604051808303816000875af11580156102ba573d6000803e3d6000fd5b505050506040513d601f19601f820116820180604052508101906102de9190611210565b50600260009054906101000a900473ffffffffffffffffffffffffffffffffffffffff1673ffffffffffffffffffffffffffffffffffffffff1663d204c45e33846040518363ffffffff1660e01b815260040161033c9291906112ab565b600060405180830381600087803b15801561035657600080fd5b505af115801561036a573d6000803e3d6000fd5b50505050505050565b80600360009054906101000a900473ffffffffffffffffffffffffffffffffffffffff1673ffffffffffffffffffffffffffffffffffffffff166370a08231336040518263ffffffff1660e01b81526004016103cf919061100c565b602060405180830381865afa1580156103ec573d6000803e3d6000fd5b505050506040513d601f19601f82011682018060405250810190610410919061103c565b1015610451576040517f08c379a00000000000000000000000000000000000000000000000000000000081526004016104489061134d565b60405180910390fd5b6000600260009054906101000a900473ffffffffffffffffffffffffffffffffffffffff1673ffffffffffffffffffffffffffffffffffffffff166370a08231336040518263ffffffff1660e01b81526004016104ae919061100c565b602060405180830381865afa1580156104cb573d6000803e3d6000fd5b505050506040513d601f19601f820116820180604052508101906104ef919061103c565b905060008114610534576040517f08c379a000000000000000000000000000000000000000000000000000000000815260040161052b906113df565b60405180910390fd5b60008211610577576040517f08c379a000000000000000000000000000000000000000000000000000000000815260040161056e90611471565b60405180910390fd5b600360009054906101000a900473ffffffffffffffffffffffffffffffffffffffff1673ffffffffffffffffffffffffffffffffffffffff166323b872dd3330856040518463ffffffff1660e01b81526004016105d6939291906111ad565b6020604051808303816000875af11580156105f5573d6000803e3d6000fd5b505050506040513d601f19601f820116820180604052508101906106199190611210565b50600060648361062991906114ef565b905080600160009054906101000a900473ffffffffffffffffffffffffffffffffffffffff1673ffffffffffffffffffffffffffffffffffffffff166370a08231306040518263ffffffff1660e01b8152600401610687919061100c565b602060405180830381865afa1580156106a4573d6000803e3d6000fd5b505050506040513d601f19601f820116820180604052508101906106c8919061103c565b111561077457600160009054906101000a900473ffffffffffffffffffffffffffffffffffffffff1673ffffffffffffffffffffffffffffffffffffffff1663a9059cbb33836040518363ffffffff1660e01b815260040161072b929190611520565b6020604051808303816000875af115801561074a573d6000803e3d6000fd5b505050506040513d601f19601f8201168201806040525081019061076e9190611210565b5061083a565b600160009054906101000a900473ffffffffffffffffffffffffffffffffffffffff1673ffffffffffffffffffffffffffffffffffffffff166323b872dd600760009054906101000a900473ffffffffffffffffffffffffffffffffffffffff1633846040518463ffffffff1660e01b81526004016107f5939291906111ad565b6020604051808303816000875af1158015610814573d6000803e3d6000fd5b505050506040513d601f19601f820116820180604052508101906108389190611210565b505b505050565b60011515600460003373ffffffffffffffffffffffffffffffffffffffff1673ffffffffffffffffffffffffffffffffffffffff16815260200190815260200160002060009054906101000a900460ff1615151461089c57600080fd5b600460008273ffffffffffffffffffffffffffffffffffffffff1673ffffffffffffffffffffffffffffffffffffffff16815260200190815260200160002060009054906101000a900460ff16156108f357600080fd5b6001600460008373ffffffffffffffffffffffffffffffffffffffff1673ffffffffffffffffffffffffffffffffffffffff16815260200190815260200160002060006101000a81548160ff02191690831515021790555050565b600060011515600460003373ffffffffffffffffffffffffffffffffffffffff1673ffffffffffffffffffffffffffffffffffffffff16815260200190815260200160002060009054906101000a900460ff161515146109ad57600080fd5b6002600054036109f2576040517f08c379a00000000000000000000000000000000000000000000000000000000081526004016109e990611595565b60405180910390fd5b600260008190555060004790508273ffffffffffffffffffffffffffffffffffffffff166108fc829081150290604051600060405180830381858888f19350505050158015610a45573d6000803e3d6000fd5b5060019150506001600081905550919050565b806064610a6591906115b5565b3414610aa6576040517f08c379a0000000000000000000000000000000000000000000000000000000008152600401610a9d90611643565b60405180910390fd5b80600360009054906101000a900473ffffffffffffffffffffffffffffffffffffffff1673ffffffffffffffffffffffffffffffffffffffff166370a08231306040518263ffffffff1660e01b8152600401610b02919061100c565b602060405180830381865afa158015610b1f573d6000803e3d6000fd5b505050506040513d601f19601f82011682018060405250810190610b43919061103c565b1115610bef57600360009054906101000a900473ffffffffffffffffffffffffffffffffffffffff1673ffffffffffffffffffffffffffffffffffffffff1663a9059cbb33836040518363ffffffff1660e01b8152600401610ba6929190611520565b6020604051808303816000875af1158015610bc5573d6000803e3d6000fd5b505050506040513d601f19601f82011682018060405250810190610be99190611210565b50610cb5565b600360009054906101000a900473ffffffffffffffffffffffffffffffffffffffff1673ffffffffffffffffffffffffffffffffffffffff166323b872dd600660009054906101000a900473ffffffffffffffffffffffffffffffffffffffff1633846040518463ffffffff1660e01b8152600401610c70939291906111ad565b6020604051808303816000875af1158015610c8f573d6000803e3d6000fd5b505050506040513d601f19601f82011682018060405250810190610cb39190611210565b505b50565b6000604051905090565b600080fd5b600080fd5b6000819050919050565b610cdf81610ccc565b8114610cea57600080fd5b50565b600081359050610cfc81610cd6565b92915050565b600080fd5b600080fd5b6000601f19601f8301169050919050565b7f4e487b7100000000000000000000000000000000000000000000000000000000600052604160045260246000fd5b610d5582610d0c565b810181811067ffffffffffffffff82111715610d7457610d73610d1d565b5b80604052505050565b6000610d87610cb8565b9050610d938282610d4c565b919050565b600067ffffffffffffffff821115610db357610db2610d1d565b5b610dbc82610d0c565b9050602081019050919050565b82818337600083830152505050565b6000610deb610de684610d98565b610d7d565b905082815260208101848484011115610e0757610e06610d07565b5b610e12848285610dc9565b509392505050565b600082601f830112610e2f57610e2e610d02565b5b8135610e3f848260208601610dd8565b91505092915050565b60008060408385031215610e5f57610e5e610cc2565b5b6000610e6d85828601610ced565b925050602083013567ffffffffffffffff811115610e8e57610e8d610cc7565b5b610e9a85828601610e1a565b9150509250929050565b600060208284031215610eba57610eb9610cc2565b5b6000610ec884828501610ced565b91505092915050565b600073ffffffffffffffffffffffffffffffffffffffff82169050919050565b6000610efc82610ed1565b9050919050565b610f0c81610ef1565b8114610f1757600080fd5b50565b600081359050610f2981610f03565b92915050565b600060208284031215610f4557610f44610cc2565b5b6000610f5384828501610f1a565b91505092915050565b6000610f6782610ed1565b9050919050565b610f7781610f5c565b8114610f8257600080fd5b50565b600081359050610f9481610f6e565b92915050565b600060208284031215610fb057610faf610cc2565b5b6000610fbe84828501610f85565b91505092915050565b60008115159050919050565b610fdc81610fc7565b82525050565b6000602082019050610ff76000830184610fd3565b92915050565b61100681610ef1565b82525050565b60006020820190506110216000830184610ffd565b92915050565b60008151905061103681610cd6565b92915050565b60006020828403121561105257611051610cc2565b5b600061106084828501611027565b91505092915050565b600082825260208201905092915050565b7f536f7272792e2e596f752063616e6e6f7420627579204f70656e20417065204260008201527f65636175736520596f7520486176652048616d6d657220546f6b656e00000000602082015250565b60006110d6603c83611069565b91506110e18261107a565b604082019050919050565b60006020820190508181036000830152611105816110c9565b9050919050565b7f416d6f756e742053686f756c642062652031303020526f707374616d20546f6b60008201527f656e730000000000000000000000000000000000000000000000000000000000602082015250565b6000611168602383611069565b91506111738261110c565b604082019050919050565b600060208201905081810360008301526111978161115b565b9050919050565b6111a781610ccc565b82525050565b60006060820190506111c26000830186610ffd565b6111cf6020830185610ffd565b6111dc604083018461119e565b949350505050565b6111ed81610fc7565b81146111f857600080fd5b50565b60008151905061120a816111e4565b92915050565b60006020828403121561122657611225610cc2565b5b6000611234848285016111fb565b91505092915050565b600081519050919050565b60005b8381101561126657808201518184015260208101905061124b565b60008484015250505050565b600061127d8261123d565b6112878185611069565b9350611297818560208601611248565b6112a081610d0c565b840191505092915050565b60006040820190506112c06000830185610ffd565b81810360208301526112d28184611272565b90509392505050565b7f596f75204861766520496e73756666696369656e7420526f707374616d20546f60008201527f6b656e7300000000000000000000000000000000000000000000000000000000602082015250565b6000611337602483611069565b9150611342826112db565b604082019050919050565b600060208201905081810360008301526113668161132a565b9050919050565b7f536f7272792e2e596f752063616e6e6f74206275792048616d6d65722042656360008201527f6175736520596f752048617665204f70656e2041706573000000000000000000602082015250565b60006113c9603783611069565b91506113d48261136d565b604082019050919050565b600060208201905081810360008301526113f8816113bc565b9050919050565b7f416d6f756e742053686f756c642062652047726561746572207468616e205a6560008201527f726f000000000000000000000000000000000000000000000000000000000000602082015250565b600061145b602283611069565b9150611466826113ff565b604082019050919050565b6000602082019050818103600083015261148a8161144e565b9050919050565b7f4e487b7100000000000000000000000000000000000000000000000000000000600052601260045260246000fd5b7f4e487b7100000000000000000000000000000000000000000000000000000000600052601160045260246000fd5b60006114fa82610ccc565b915061150583610ccc565b92508261151557611514611491565b5b828204905092915050565b60006040820190506115356000830185610ffd565b611542602083018461119e565b9392505050565b7f5265656e7472616e637947756172643a207265656e7472616e742063616c6c00600082015250565b600061157f601f83611069565b915061158a82611549565b602082019050919050565b600060208201905081810360008301526115ae81611572565b9050919050565b60006115c082610ccc565b91506115cb83610ccc565b92508282026115d981610ccc565b915082820484148315176115f0576115ef6114c0565b5b5092915050565b7f596f75206861766520696e73756666696369656e742042616c616e6365000000600082015250565b600061162d601d83611069565b9150611638826115f7565b602082019050919050565b6000602082019050818103600083015261165c81611620565b905091905056fea2646970667358221220121aba9dfeb43f95e07e48e60bf5c1e80440b4d9ef374e6a5ffc80812fb0e9c164736f6c63430008110033",
  "linkReferences": {},
  "deployedLinkReferences": {}
}