{
  "_format": "hh-sol-artifact-1",
  "contractName": "OpenApes",
  "sourceName": "contracts/OpenApesToken.sol",
  "abi": [
    {
      "inputs": [],
      "stateMutability": "nonpayable",
      "type": "constructor"
    },
    {
      "anonymous": false,
      "inputs": [
        {
          "indexed": true,
          "internalType": "address",
          "name": "owner",
          "type": "address"
        },
        {
          "indexed": true,
          "internalType": "address",
          "name": "approved",
          "type": "address"
        },
        {
          "indexed": true,
          "internalType": "uint256",
          "name": "tokenId",
          "type": "uint256"
        }
      ],
      "name": "Approval",
      "type": "event"
    },
    {
      "anonymous": false,
      "inputs": [
        {
          "indexed": true,
          "internalType": "address",
          "name": "owner",
          "type": "address"
        },
        {
          "indexed": true,
          "internalType": "address",
          "name": "operator",
          "type": "address"
        },
        {
          "indexed": false,
          "internalType": "bool",
          "name": "approved",
          "type": "bool"
        }
      ],
      "name": "ApprovalForAll",
      "type": "event"
    },
    {
      "anonymous": false,
      "inputs": [
        {
          "indexed": true,
          "internalType": "address",
          "name": "previousOwner",
          "type": "address"
        },
        {
          "indexed": true,
          "internalType": "address",
          "name": "newOwner",
          "type": "address"
        }
      ],
      "name": "OwnershipTransferred",
      "type": "event"
    },
    {
      "anonymous": false,
      "inputs": [
        {
          "indexed": false,
          "internalType": "address",
          "name": "account",
          "type": "address"
        }
      ],
      "name": "Paused",
      "type": "event"
    },
    {
      "anonymous": false,
      "inputs": [
        {
          "indexed": true,
          "internalType": "address",
          "name": "from",
          "type": "address"
        },
        {
          "indexed": true,
          "internalType": "address",
          "name": "to",
          "type": "address"
        },
        {
          "indexed": true,
          "internalType": "uint256",
          "name": "tokenId",
          "type": "uint256"
        }
      ],
      "name": "Transfer",
      "type": "event"
    },
    {
      "anonymous": false,
      "inputs": [
        {
          "indexed": false,
          "internalType": "address",
          "name": "account",
          "type": "address"
        }
      ],
      "name": "Unpaused",
      "type": "event"
    },
    {
      "inputs": [
        {
          "internalType": "address",
          "name": "to",
          "type": "address"
        },
        {
          "internalType": "uint256",
          "name": "tokenId",
          "type": "uint256"
        }
      ],
      "name": "approve",
      "outputs": [],
      "stateMutability": "nonpayable",
      "type": "function"
    },
    {
      "inputs": [
        {
          "internalType": "address",
          "name": "owner",
          "type": "address"
        }
      ],
      "name": "balanceOf",
      "outputs": [
        {
          "internalType": "uint256",
          "name": "",
          "type": "uint256"
        }
      ],
      "stateMutability": "view",
      "type": "function"
    },
    {
      "inputs": [
        {
          "internalType": "uint256",
          "name": "tokenId",
          "type": "uint256"
        }
      ],
      "name": "burn",
      "outputs": [],
      "stateMutability": "nonpayable",
      "type": "function"
    },
    {
      "inputs": [
        {
          "internalType": "uint256",
          "name": "tokenId",
          "type": "uint256"
        }
      ],
      "name": "getApproved",
      "outputs": [
        {
          "internalType": "address",
          "name": "",
          "type": "address"
        }
      ],
      "stateMutability": "view",
      "type": "function"
    },
    {
      "inputs": [
        {
          "internalType": "address",
          "name": "owner",
          "type": "address"
        },
        {
          "internalType": "address",
          "name": "operator",
          "type": "address"
        }
      ],
      "name": "isApprovedForAll",
      "outputs": [
        {
          "internalType": "bool",
          "name": "",
          "type": "bool"
        }
      ],
      "stateMutability": "view",
      "type": "function"
    },
    {
      "inputs": [],
      "name": "name",
      "outputs": [
        {
          "internalType": "string",
          "name": "",
          "type": "string"
        }
      ],
      "stateMutability": "view",
      "type": "function"
    },
    {
      "inputs": [],
      "name": "owner",
      "outputs": [
        {
          "internalType": "address",
          "name": "",
          "type": "address"
        }
      ],
      "stateMutability": "view",
      "type": "function"
    },
    {
      "inputs": [
        {
          "internalType": "uint256",
          "name": "tokenId",
          "type": "uint256"
        }
      ],
      "name": "ownerOf",
      "outputs": [
        {
          "internalType": "address",
          "name": "",
          "type": "address"
        }
      ],
      "stateMutability": "view",
      "type": "function"
    },
    {
      "inputs": [],
      "name": "pause",
      "outputs": [],
      "stateMutability": "nonpayable",
      "type": "function"
    },
    {
      "inputs": [],
      "name": "paused",
      "outputs": [
        {
          "internalType": "bool",
          "name": "",
          "type": "bool"
        }
      ],
      "stateMutability": "view",
      "type": "function"
    },
    {
      "inputs": [],
      "name": "renounceOwnership",
      "outputs": [],
      "stateMutability": "nonpayable",
      "type": "function"
    },
    {
      "inputs": [
        {
          "internalType": "address",
          "name": "to",
          "type": "address"
        },
        {
          "internalType": "string",
          "name": "uri",
          "type": "string"
        }
      ],
      "name": "safeMint",
      "outputs": [],
      "stateMutability": "nonpayable",
      "type": "function"
    },
    {
      "inputs": [
        {
          "internalType": "address",
          "name": "from",
          "type": "address"
        },
        {
          "internalType": "address",
          "name": "to",
          "type": "address"
        },
        {
          "internalType": "uint256",
          "name": "tokenId",
          "type": "uint256"
        }
      ],
      "name": "safeTransferFrom",
      "outputs": [],
      "stateMutability": "nonpayable",
      "type": "function"
    },
    {
      "inputs": [
        {
          "internalType": "address",
          "name": "from",
          "type": "address"
        },
        {
          "internalType": "address",
          "name": "to",
          "type": "address"
        },
        {
          "internalType": "uint256",
          "name": "tokenId",
          "type": "uint256"
        },
        {
          "internalType": "bytes",
          "name": "data",
          "type": "bytes"
        }
      ],
      "name": "safeTransferFrom",
      "outputs": [],
      "stateMutability": "nonpayable",
      "type": "function"
    },
    {
      "inputs": [
        {
          "internalType": "address",
          "name": "operator",
          "type": "address"
        },
        {
          "internalType": "bool",
          "name": "approved",
          "type": "bool"
        }
      ],
      "name": "setApprovalForAll",
      "outputs": [],
      "stateMutability": "nonpayable",
      "type": "function"
    },
    {
      "inputs": [
        {
          "internalType": "bytes4",
          "name": "interfaceId",
          "type": "bytes4"
        }
      ],
      "name": "supportsInterface",
      "outputs": [
        {
          "internalType": "bool",
          "name": "",
          "type": "bool"
        }
      ],
      "stateMutability": "view",
      "type": "function"
    },
    {
      "inputs": [],
      "name": "symbol",
      "outputs": [
        {
          "internalType": "string",
          "name": "",
          "type": "string"
        }
      ],
      "stateMutability": "view",
      "type": "function"
    },
    {
      "inputs": [
        {
          "internalType": "uint256",
          "name": "index",
          "type": "uint256"
        }
      ],
      "name": "tokenByIndex",
      "outputs": [
        {
          "internalType": "uint256",
          "name": "",
          "type": "uint256"
        }
      ],
      "stateMutability": "view",
      "type": "function"
    },
    {
      "inputs": [
        {
          "internalType": "address",
          "name": "owner",
          "type": "address"
        },
        {
          "internalType": "uint256",
          "name": "index",
          "type": "uint256"
        }
      ],
      "name": "tokenOfOwnerByIndex",
      "outputs": [
        {
          "internalType": "uint256",
          "name": "",
          "type": "uint256"
        }
      ],
      "stateMutability": "view",
      "type": "function"
    },
    {
      "inputs": [
        {
          "internalType": "uint256",
          "name": "tokenId",
          "type": "uint256"
        }
      ],
      "name": "tokenURI",
      "outputs": [
        {
          "internalType": "string",
          "name": "",
          "type": "string"
        }
      ],
      "stateMutability": "view",
      "type": "function"
    },
    {
      "inputs": [],
      "name": "totalSupply",
      "outputs": [
        {
          "internalType": "uint256",
          "name": "",
          "type": "uint256"
        }
      ],
      "stateMutability": "view",
      "type": "function"
    },
    {
      "inputs": [
        {
          "internalType": "address",
          "name": "from",
          "type": "address"
        },
        {
          "internalType": "address",
          "name": "to",
          "type": "address"
        },
        {
          "internalType": "uint256",
          "name": "tokenId",
          "type": "uint256"
        }
      ],
      "name": "transferFrom",
      "outputs": [],
      "stateMutability": "nonpayable",
      "type": "function"
    },
    {
      "inputs": [
        {
          "internalType": "address",
          "name": "newOwner",
          "type": "address"
        }
      ],
      "name": "transferOwnership",
      "outputs": [],
      "stateMutability": "nonpayable",
      "type": "function"
    },
    {
      "inputs": [],
      "name": "unpause",
      "outputs": [],
      "stateMutability": "nonpayable",
      "type": "function"
    }
  ],
  "bytecode": "0x60806040523480156200001157600080fd5b506040518060400160405280600981526020017f4f70656e204170657300000000000000000000000000000000000000000000008152506040518060400160405280600281526020017f4f4100000000000000000000000000000000000000000000000000000000000081525081600090816200008f91906200042d565b508060019081620000a191906200042d565b5050506000600b60006101000a81548160ff021916908315150217905550620000df620000d3620000e560201b60201c565b620000ed60201b60201c565b62000514565b600033905090565b6000600b60019054906101000a900473ffffffffffffffffffffffffffffffffffffffff16905081600b60016101000a81548173ffffffffffffffffffffffffffffffffffffffff021916908373ffffffffffffffffffffffffffffffffffffffff1602179055508173ffffffffffffffffffffffffffffffffffffffff168173ffffffffffffffffffffffffffffffffffffffff167f8be0079c531659141344cd1fd0a4f28419497f9722a3daafe3b4186f6b6457e060405160405180910390a35050565b600081519050919050565b7f4e487b7100000000000000000000000000000000000000000000000000000000600052604160045260246000fd5b7f4e487b7100000000000000000000000000000000000000000000000000000000600052602260045260246000fd5b600060028204905060018216806200023557607f821691505b6020821081036200024b576200024a620001ed565b5b50919050565b60008190508160005260206000209050919050565b60006020601f8301049050919050565b600082821b905092915050565b600060088302620002b57fffffffffffffffffffffffffffffffffffffffffffffffffffffffffffffffff8262000276565b620002c1868362000276565b95508019841693508086168417925050509392505050565b6000819050919050565b6000819050919050565b60006200030e620003086200030284620002d9565b620002e3565b620002d9565b9050919050565b6000819050919050565b6200032a83620002ed565b62000342620003398262000315565b84845462000283565b825550505050565b600090565b620003596200034a565b620003668184846200031f565b505050565b5b818110156200038e57620003826000826200034f565b6001810190506200036c565b5050565b601f821115620003dd57620003a78162000251565b620003b28462000266565b81016020851015620003c2578190505b620003da620003d18562000266565b8301826200036b565b50505b505050565b600082821c905092915050565b60006200040260001984600802620003e2565b1980831691505092915050565b60006200041d8383620003ef565b9150826002028217905092915050565b6200043882620001b3565b67ffffffffffffffff811115620004545762000453620001be565b5b6200046082546200021c565b6200046d82828562000392565b600060209050601f831160018114620004a5576000841562000490578287015190505b6200049c85826200040f565b8655506200050c565b601f198416620004b58662000251565b60005b82811015620004df57848901518255600182019150602085019450602081019050620004b8565b86831015620004ff5784890151620004fb601f891682620003ef565b8355505b6001600288020188555050505b505050505050565b613b0380620005246000396000f3fe608060405234801561001057600080fd5b50600436106101585760003560e01c80636352211e116100c3578063a22cb4651161007c578063a22cb465146103a1578063b88d4fde146103bd578063c87b56dd146103d9578063d204c45e14610409578063e985e9c514610425578063f2fde38b1461045557610158565b80636352211e146102f157806370a0823114610321578063715018a6146103515780638456cb591461035b5780638da5cb5b1461036557806395d89b411461038357610158565b80632f745c59116101155780632f745c59146102315780633f4ba83a1461026157806342842e0e1461026b57806342966c68146102875780634f6ccce7146102a35780635c975abb146102d357610158565b806301ffc9a71461015d57806306fdde031461018d578063081812fc146101ab578063095ea7b3146101db57806318160ddd146101f757806323b872dd14610215575b600080fd5b61017760048036038101906101729190612559565b610471565b60405161018491906125a1565b60405180910390f35b610195610483565b6040516101a2919061264c565b60405180910390f35b6101c560048036038101906101c091906126a4565b610515565b6040516101d29190612712565b60405180910390f35b6101f560048036038101906101f09190612759565b61055b565b005b6101ff610672565b60405161020c91906127a8565b60405180910390f35b61022f600480360381019061022a91906127c3565b61067f565b005b61024b60048036038101906102469190612759565b6106df565b60405161025891906127a8565b60405180910390f35b610269610784565b005b610285600480360381019061028091906127c3565b610796565b005b6102a1600480360381019061029c91906126a4565b6107b6565b005b6102bd60048036038101906102b891906126a4565b610812565b6040516102ca91906127a8565b60405180910390f35b6102db610883565b6040516102e891906125a1565b60405180910390f35b61030b600480360381019061030691906126a4565b61089a565b6040516103189190612712565b60405180910390f35b61033b60048036038101906103369190612816565b61094b565b60405161034891906127a8565b60405180910390f35b610359610a02565b005b610363610a16565b005b61036d610a28565b60405161037a9190612712565b60405180910390f35b61038b610a52565b604051610398919061264c565b60405180910390f35b6103bb60048036038101906103b6919061286f565b610ae4565b005b6103d760048036038101906103d291906129e4565b610afa565b005b6103f360048036038101906103ee91906126a4565b610b5c565b604051610400919061264c565b60405180910390f35b610423600480360381019061041e9190612b08565b610b6e565b005b61043f600480360381019061043a9190612b64565b610ba7565b60405161044c91906125a1565b60405180910390f35b61046f600480360381019061046a9190612816565b610c3b565b005b600061047c82610cbe565b9050919050565b60606000805461049290612bd3565b80601f01602080910402602001604051908101604052809291908181526020018280546104be90612bd3565b801561050b5780601f106104e05761010080835404028352916020019161050b565b820191906000526020600020905b8154815290600101906020018083116104ee57829003601f168201915b5050505050905090565b600061052082610d38565b6004600083815260200190815260200160002060009054906101000a900473ffffffffffffffffffffffffffffffffffffffff169050919050565b60006105668261089a565b90508073ffffffffffffffffffffffffffffffffffffffff168373ffffffffffffffffffffffffffffffffffffffff16036105d6576040517f08c379a00000000000000000000000000000000000000000000000000000000081526004016105cd90612c76565b60405180910390fd5b8073ffffffffffffffffffffffffffffffffffffffff166105f5610d83565b73ffffffffffffffffffffffffffffffffffffffff16148061062457506106238161061e610d83565b610ba7565b5b610663576040517f08c379a000000000000000000000000000000000000000000000000000000000815260040161065a90612d08565b60405180910390fd5b61066d8383610d8b565b505050565b6000600880549050905090565b61069061068a610d83565b82610e44565b6106cf576040517f08c379a00000000000000000000000000000000000000000000000000000000081526004016106c690612d9a565b60405180910390fd5b6106da838383610ed9565b505050565b60006106ea8361094b565b821061072b576040517f08c379a000000000000000000000000000000000000000000000000000000000815260040161072290612e2c565b60405180910390fd5b600660008473ffffffffffffffffffffffffffffffffffffffff1673ffffffffffffffffffffffffffffffffffffffff168152602001908152602001600020600083815260200190815260200160002054905092915050565b61078c61113f565b6107946111bd565b565b6107b183838360405180602001604052806000815250610afa565b505050565b6107c76107c1610d83565b82610e44565b610806576040517f08c379a00000000000000000000000000000000000000000000000000000000081526004016107fd90612d9a565b60405180910390fd5b61080f81611220565b50565b600061081c610672565b821061085d576040517f08c379a000000000000000000000000000000000000000000000000000000000815260040161085490612ebe565b60405180910390fd5b6008828154811061087157610870612ede565b5b90600052602060002001549050919050565b6000600b60009054906101000a900460ff16905090565b6000806002600084815260200190815260200160002060009054906101000a900473ffffffffffffffffffffffffffffffffffffffff169050600073ffffffffffffffffffffffffffffffffffffffff168173ffffffffffffffffffffffffffffffffffffffff1603610942576040517f08c379a000000000000000000000000000000000000000000000000000000000815260040161093990612f59565b60405180910390fd5b80915050919050565b60008073ffffffffffffffffffffffffffffffffffffffff168273ffffffffffffffffffffffffffffffffffffffff16036109bb576040517f08c379a00000000000000000000000000000000000000000000000000000000081526004016109b290612feb565b60405180910390fd5b600360008373ffffffffffffffffffffffffffffffffffffffff1673ffffffffffffffffffffffffffffffffffffffff168152602001908152602001600020549050919050565b610a0a61113f565b610a14600061122c565b565b610a1e61113f565b610a266112f2565b565b6000600b60019054906101000a900473ffffffffffffffffffffffffffffffffffffffff16905090565b606060018054610a6190612bd3565b80601f0160208091040260200160405190810160405280929190818152602001828054610a8d90612bd3565b8015610ada5780601f10610aaf57610100808354040283529160200191610ada565b820191906000526020600020905b815481529060010190602001808311610abd57829003601f168201915b5050505050905090565b610af6610aef610d83565b8383611355565b5050565b610b0b610b05610d83565b83610e44565b610b4a576040517f08c379a0000000000000000000000000000000000000000000000000000000008152600401610b4190612d9a565b60405180910390fd5b610b56848484846114c1565b50505050565b6060610b678261151d565b9050919050565b610b7661113f565b6000610b82600c61162f565b9050610b8e600c61163d565b610b988382611653565b610ba28183611671565b505050565b6000600560008473ffffffffffffffffffffffffffffffffffffffff1673ffffffffffffffffffffffffffffffffffffffff16815260200190815260200160002060008373ffffffffffffffffffffffffffffffffffffffff1673ffffffffffffffffffffffffffffffffffffffff16815260200190815260200160002060009054906101000a900460ff16905092915050565b610c4361113f565b600073ffffffffffffffffffffffffffffffffffffffff168173ffffffffffffffffffffffffffffffffffffffff1603610cb2576040517f08c379a0000000000000000000000000000000000000000000000000000000008152600401610ca99061307d565b60405180910390fd5b610cbb8161122c565b50565b60007f780e9d63000000000000000000000000000000000000000000000000000000007bffffffffffffffffffffffffffffffffffffffffffffffffffffffff1916827bffffffffffffffffffffffffffffffffffffffffffffffffffffffff19161480610d315750610d30826116de565b5b9050919050565b610d41816117c0565b610d80576040517f08c379a0000000000000000000000000000000000000000000000000000000008152600401610d7790612f59565b60405180910390fd5b50565b600033905090565b816004600083815260200190815260200160002060006101000a81548173ffffffffffffffffffffffffffffffffffffffff021916908373ffffffffffffffffffffffffffffffffffffffff160217905550808273ffffffffffffffffffffffffffffffffffffffff16610dfe8361089a565b73ffffffffffffffffffffffffffffffffffffffff167f8c5be1e5ebec7d5bd14f71427d1e84f3dd0314c0f7b2291e5b200ac8c7c3b92560405160405180910390a45050565b600080610e508361089a565b90508073ffffffffffffffffffffffffffffffffffffffff168473ffffffffffffffffffffffffffffffffffffffff161480610e925750610e918185610ba7565b5b80610ed057508373ffffffffffffffffffffffffffffffffffffffff16610eb884610515565b73ffffffffffffffffffffffffffffffffffffffff16145b91505092915050565b8273ffffffffffffffffffffffffffffffffffffffff16610ef98261089a565b73ffffffffffffffffffffffffffffffffffffffff1614610f4f576040517f08c379a0000000000000000000000000000000000000000000000000000000008152600401610f469061310f565b60405180910390fd5b600073ffffffffffffffffffffffffffffffffffffffff168273ffffffffffffffffffffffffffffffffffffffff1603610fbe576040517f08c379a0000000000000000000000000000000000000000000000000000000008152600401610fb5906131a1565b60405180910390fd5b610fc983838361182c565b610fd4600082610d8b565b6001600360008573ffffffffffffffffffffffffffffffffffffffff1673ffffffffffffffffffffffffffffffffffffffff168152602001908152602001600020600082825461102491906131f0565b925050819055506001600360008473ffffffffffffffffffffffffffffffffffffffff1673ffffffffffffffffffffffffffffffffffffffff168152602001908152602001600020600082825461107b9190613224565b92505081905550816002600083815260200190815260200160002060006101000a81548173ffffffffffffffffffffffffffffffffffffffff021916908373ffffffffffffffffffffffffffffffffffffffff160217905550808273ffffffffffffffffffffffffffffffffffffffff168473ffffffffffffffffffffffffffffffffffffffff167fddf252ad1be2c89b69c2b068fc378daa952ba7f163c4a11628f55a4df523b3ef60405160405180910390a461113a838383611844565b505050565b611147610d83565b73ffffffffffffffffffffffffffffffffffffffff16611165610a28565b73ffffffffffffffffffffffffffffffffffffffff16146111bb576040517f08c379a00000000000000000000000000000000000000000000000000000000081526004016111b2906132a4565b60405180910390fd5b565b6111c5611849565b6000600b60006101000a81548160ff0219169083151502179055507f5db9ee0a495bf2e6ff9c91a7834c1ba4fdd244a5e8aa4e537bd38aeae4b073aa611209610d83565b6040516112169190612712565b60405180910390a1565b61122981611892565b50565b6000600b60019054906101000a900473ffffffffffffffffffffffffffffffffffffffff16905081600b60016101000a81548173ffffffffffffffffffffffffffffffffffffffff021916908373ffffffffffffffffffffffffffffffffffffffff1602179055508173ffffffffffffffffffffffffffffffffffffffff168173ffffffffffffffffffffffffffffffffffffffff167f8be0079c531659141344cd1fd0a4f28419497f9722a3daafe3b4186f6b6457e060405160405180910390a35050565b6112fa6118e5565b6001600b60006101000a81548160ff0219169083151502179055507f62e78cea01bee320cd4e420270b5ea74000d11b0c9f74754ebdbfc544b05a25861133e610d83565b60405161134b9190612712565b60405180910390a1565b8173ffffffffffffffffffffffffffffffffffffffff168373ffffffffffffffffffffffffffffffffffffffff16036113c3576040517f08c379a00000000000000000000000000000000000000000000000000000000081526004016113ba90613310565b60405180910390fd5b80600560008573ffffffffffffffffffffffffffffffffffffffff1673ffffffffffffffffffffffffffffffffffffffff16815260200190815260200160002060008473ffffffffffffffffffffffffffffffffffffffff1673ffffffffffffffffffffffffffffffffffffffff16815260200190815260200160002060006101000a81548160ff0219169083151502179055508173ffffffffffffffffffffffffffffffffffffffff168373ffffffffffffffffffffffffffffffffffffffff167f17307eab39ab6107e8899845ad3d59bd9653f200f220920489ca2b5937696c31836040516114b491906125a1565b60405180910390a3505050565b6114cc848484610ed9565b6114d88484848461192f565b611517576040517f08c379a000000000000000000000000000000000000000000000000000000000815260040161150e906133a2565b60405180910390fd5b50505050565b606061152882610d38565b6000600a6000848152602001908152602001600020805461154890612bd3565b80601f016020809104026020016040519081016040528092919081815260200182805461157490612bd3565b80156115c15780601f10611596576101008083540402835291602001916115c1565b820191906000526020600020905b8154815290600101906020018083116115a457829003601f168201915b5050505050905060006115d2611ab6565b905060008151036115e757819250505061162a565b60008251111561161c5780826040516020016116049291906133fe565b6040516020818303038152906040529250505061162a565b61162584611acd565b925050505b919050565b600081600001549050919050565b6001816000016000828254019250508190555050565b61166d828260405180602001604052806000815250611b35565b5050565b61167a826117c0565b6116b9576040517f08c379a00000000000000000000000000000000000000000000000000000000081526004016116b090613494565b60405180910390fd5b80600a600084815260200190815260200160002090816116d99190613660565b505050565b60007f80ac58cd000000000000000000000000000000000000000000000000000000007bffffffffffffffffffffffffffffffffffffffffffffffffffffffff1916827bffffffffffffffffffffffffffffffffffffffffffffffffffffffff191614806117a957507f5b5e139f000000000000000000000000000000000000000000000000000000007bffffffffffffffffffffffffffffffffffffffffffffffffffffffff1916827bffffffffffffffffffffffffffffffffffffffffffffffffffffffff1916145b806117b957506117b882611b90565b5b9050919050565b60008073ffffffffffffffffffffffffffffffffffffffff166002600084815260200190815260200160002060009054906101000a900473ffffffffffffffffffffffffffffffffffffffff1673ffffffffffffffffffffffffffffffffffffffff1614159050919050565b6118346118e5565b61183f838383611bfa565b505050565b505050565b611851610883565b611890576040517f08c379a00000000000000000000000000000000000000000000000000000000081526004016118879061377e565b60405180910390fd5b565b61189b81611d0c565b6000600a600083815260200190815260200160002080546118bb90612bd3565b9050146118e257600a600082815260200190815260200160002060006118e19190612490565b5b50565b6118ed610883565b1561192d576040517f08c379a0000000000000000000000000000000000000000000000000000000008152600401611924906137ea565b60405180910390fd5b565b60006119508473ffffffffffffffffffffffffffffffffffffffff16611e29565b15611aa9578373ffffffffffffffffffffffffffffffffffffffff1663150b7a02611979610d83565b8786866040518563ffffffff1660e01b815260040161199b949392919061385f565b6020604051808303816000875af19250505080156119d757506040513d601f19601f820116820180604052508101906119d491906138c0565b60015b611a59573d8060008114611a07576040519150601f19603f3d011682016040523d82523d6000602084013e611a0c565b606091505b506000815103611a51576040517f08c379a0000000000000000000000000000000000000000000000000000000008152600401611a48906133a2565b60405180910390fd5b805181602001fd5b63150b7a0260e01b7bffffffffffffffffffffffffffffffffffffffffffffffffffffffff1916817bffffffffffffffffffffffffffffffffffffffffffffffffffffffff191614915050611aae565b600190505b949350505050565b606060405180602001604052806000815250905090565b6060611ad882610d38565b6000611ae2611ab6565b90506000815111611b025760405180602001604052806000815250611b2d565b80611b0c84611e4c565b604051602001611b1d9291906133fe565b6040516020818303038152906040525b915050919050565b611b3f8383611fac565b611b4c600084848461192f565b611b8b576040517f08c379a0000000000000000000000000000000000000000000000000000000008152600401611b82906133a2565b60405180910390fd5b505050565b60007f01ffc9a7000000000000000000000000000000000000000000000000000000007bffffffffffffffffffffffffffffffffffffffffffffffffffffffff1916827bffffffffffffffffffffffffffffffffffffffffffffffffffffffff1916149050919050565b611c05838383612185565b600073ffffffffffffffffffffffffffffffffffffffff168373ffffffffffffffffffffffffffffffffffffffff1603611c4757611c428161218a565b611c86565b8173ffffffffffffffffffffffffffffffffffffffff168373ffffffffffffffffffffffffffffffffffffffff1614611c8557611c8483826121d3565b5b5b600073ffffffffffffffffffffffffffffffffffffffff168273ffffffffffffffffffffffffffffffffffffffff1603611cc857611cc381612340565b611d07565b8273ffffffffffffffffffffffffffffffffffffffff168273ffffffffffffffffffffffffffffffffffffffff1614611d0657611d058282612411565b5b5b505050565b6000611d178261089a565b9050611d258160008461182c565b611d30600083610d8b565b6001600360008373ffffffffffffffffffffffffffffffffffffffff1673ffffffffffffffffffffffffffffffffffffffff1681526020019081526020016000206000828254611d8091906131f0565b925050819055506002600083815260200190815260200160002060006101000a81549073ffffffffffffffffffffffffffffffffffffffff021916905581600073ffffffffffffffffffffffffffffffffffffffff168273ffffffffffffffffffffffffffffffffffffffff167fddf252ad1be2c89b69c2b068fc378daa952ba7f163c4a11628f55a4df523b3ef60405160405180910390a4611e2581600084611844565b5050565b6000808273ffffffffffffffffffffffffffffffffffffffff163b119050919050565b606060008203611e93576040518060400160405280600181526020017f30000000000000000000000000000000000000000000000000000000000000008152509050611fa7565b600082905060005b60008214611ec5578080611eae906138ed565b915050600a82611ebe9190613964565b9150611e9b565b60008167ffffffffffffffff811115611ee157611ee06128b9565b5b6040519080825280601f01601f191660200182016040528015611f135781602001600182028036833780820191505090505b5090505b60008514611fa057600182611f2c91906131f0565b9150600a85611f3b9190613995565b6030611f479190613224565b60f81b818381518110611f5d57611f5c612ede565b5b60200101907effffffffffffffffffffffffffffffffffffffffffffffffffffffffffffff1916908160001a905350600a85611f999190613964565b9450611f17565b8093505050505b919050565b600073ffffffffffffffffffffffffffffffffffffffff168273ffffffffffffffffffffffffffffffffffffffff160361201b576040517f08c379a000000000000000000000000000000000000000000000000000000000815260040161201290613a12565b60405180910390fd5b612024816117c0565b15612064576040517f08c379a000000000000000000000000000000000000000000000000000000000815260040161205b90613a7e565b60405180910390fd5b6120706000838361182c565b6001600360008473ffffffffffffffffffffffffffffffffffffffff1673ffffffffffffffffffffffffffffffffffffffff16815260200190815260200160002060008282546120c09190613224565b92505081905550816002600083815260200190815260200160002060006101000a81548173ffffffffffffffffffffffffffffffffffffffff021916908373ffffffffffffffffffffffffffffffffffffffff160217905550808273ffffffffffffffffffffffffffffffffffffffff16600073ffffffffffffffffffffffffffffffffffffffff167fddf252ad1be2c89b69c2b068fc378daa952ba7f163c4a11628f55a4df523b3ef60405160405180910390a461218160008383611844565b5050565b505050565b6008805490506009600083815260200190815260200160002081905550600881908060018154018082558091505060019003906000526020600020016000909190919091505550565b600060016121e08461094b565b6121ea91906131f0565b90506000600760008481526020019081526020016000205490508181146122cf576000600660008673ffffffffffffffffffffffffffffffffffffffff1673ffffffffffffffffffffffffffffffffffffffff168152602001908152602001600020600084815260200190815260200160002054905080600660008773ffffffffffffffffffffffffffffffffffffffff1673ffffffffffffffffffffffffffffffffffffffff168152602001908152602001600020600084815260200190815260200160002081905550816007600083815260200190815260200160002081905550505b6007600084815260200190815260200160002060009055600660008573ffffffffffffffffffffffffffffffffffffffff1673ffffffffffffffffffffffffffffffffffffffff16815260200190815260200160002060008381526020019081526020016000206000905550505050565b6000600160088054905061235491906131f0565b905060006009600084815260200190815260200160002054905060006008838154811061238457612383612ede565b5b9060005260206000200154905080600883815481106123a6576123a5612ede565b5b9060005260206000200181905550816009600083815260200190815260200160002081905550600960008581526020019081526020016000206000905560088054806123f5576123f4613a9e565b5b6001900381819060005260206000200160009055905550505050565b600061241c8361094b565b905081600660008573ffffffffffffffffffffffffffffffffffffffff1673ffffffffffffffffffffffffffffffffffffffff168152602001908152602001600020600083815260200190815260200160002081905550806007600084815260200190815260200160002081905550505050565b50805461249c90612bd3565b6000825580601f106124ae57506124cd565b601f0160209004906000526020600020908101906124cc91906124d0565b5b50565b5b808211156124e95760008160009055506001016124d1565b5090565b6000604051905090565b600080fd5b600080fd5b60007fffffffff0000000000000000000000000000000000000000000000000000000082169050919050565b61253681612501565b811461254157600080fd5b50565b6000813590506125538161252d565b92915050565b60006020828403121561256f5761256e6124f7565b5b600061257d84828501612544565b91505092915050565b60008115159050919050565b61259b81612586565b82525050565b60006020820190506125b66000830184612592565b92915050565b600081519050919050565b600082825260208201905092915050565b60005b838110156125f65780820151818401526020810190506125db565b60008484015250505050565b6000601f19601f8301169050919050565b600061261e826125bc565b61262881856125c7565b93506126388185602086016125d8565b61264181612602565b840191505092915050565b600060208201905081810360008301526126668184612613565b905092915050565b6000819050919050565b6126818161266e565b811461268c57600080fd5b50565b60008135905061269e81612678565b92915050565b6000602082840312156126ba576126b96124f7565b5b60006126c88482850161268f565b91505092915050565b600073ffffffffffffffffffffffffffffffffffffffff82169050919050565b60006126fc826126d1565b9050919050565b61270c816126f1565b82525050565b60006020820190506127276000830184612703565b92915050565b612736816126f1565b811461274157600080fd5b50565b6000813590506127538161272d565b92915050565b600080604083850312156127705761276f6124f7565b5b600061277e85828601612744565b925050602061278f8582860161268f565b9150509250929050565b6127a28161266e565b82525050565b60006020820190506127bd6000830184612799565b92915050565b6000806000606084860312156127dc576127db6124f7565b5b60006127ea86828701612744565b93505060206127fb86828701612744565b925050604061280c8682870161268f565b9150509250925092565b60006020828403121561282c5761282b6124f7565b5b600061283a84828501612744565b91505092915050565b61284c81612586565b811461285757600080fd5b50565b60008135905061286981612843565b92915050565b60008060408385031215612886576128856124f7565b5b600061289485828601612744565b92505060206128a58582860161285a565b9150509250929050565b600080fd5b600080fd5b7f4e487b7100000000000000000000000000000000000000000000000000000000600052604160045260246000fd5b6128f182612602565b810181811067ffffffffffffffff821117156129105761290f6128b9565b5b80604052505050565b60006129236124ed565b905061292f82826128e8565b919050565b600067ffffffffffffffff82111561294f5761294e6128b9565b5b61295882612602565b9050602081019050919050565b82818337600083830152505050565b600061298761298284612934565b612919565b9050828152602081018484840111156129a3576129a26128b4565b5b6129ae848285612965565b509392505050565b600082601f8301126129cb576129ca6128af565b5b81356129db848260208601612974565b91505092915050565b600080600080608085870312156129fe576129fd6124f7565b5b6000612a0c87828801612744565b9450506020612a1d87828801612744565b9350506040612a2e8782880161268f565b925050606085013567ffffffffffffffff811115612a4f57612a4e6124fc565b5b612a5b878288016129b6565b91505092959194509250565b600067ffffffffffffffff821115612a8257612a816128b9565b5b612a8b82612602565b9050602081019050919050565b6000612aab612aa684612a67565b612919565b905082815260208101848484011115612ac757612ac66128b4565b5b612ad2848285612965565b509392505050565b600082601f830112612aef57612aee6128af565b5b8135612aff848260208601612a98565b91505092915050565b60008060408385031215612b1f57612b1e6124f7565b5b6000612b2d85828601612744565b925050602083013567ffffffffffffffff811115612b4e57612b4d6124fc565b5b612b5a85828601612ada565b9150509250929050565b60008060408385031215612b7b57612b7a6124f7565b5b6000612b8985828601612744565b9250506020612b9a85828601612744565b9150509250929050565b7f4e487b7100000000000000000000000000000000000000000000000000000000600052602260045260246000fd5b60006002820490506001821680612beb57607f821691505b602082108103612bfe57612bfd612ba4565b5b50919050565b7f4552433732313a20617070726f76616c20746f2063757272656e74206f776e6560008201527f7200000000000000000000000000000000000000000000000000000000000000602082015250565b6000612c606021836125c7565b9150612c6b82612c04565b604082019050919050565b60006020820190508181036000830152612c8f81612c53565b9050919050565b7f4552433732313a20617070726f76652063616c6c6572206973206e6f7420746f60008201527f6b656e206f776e6572206e6f7220617070726f76656420666f7220616c6c0000602082015250565b6000612cf2603e836125c7565b9150612cfd82612c96565b604082019050919050565b60006020820190508181036000830152612d2181612ce5565b9050919050565b7f4552433732313a2063616c6c6572206973206e6f7420746f6b656e206f776e6560008201527f72206e6f7220617070726f766564000000000000000000000000000000000000602082015250565b6000612d84602e836125c7565b9150612d8f82612d28565b604082019050919050565b60006020820190508181036000830152612db381612d77565b9050919050565b7f455243373231456e756d657261626c653a206f776e657220696e646578206f7560008201527f74206f6620626f756e6473000000000000000000000000000000000000000000602082015250565b6000612e16602b836125c7565b9150612e2182612dba565b604082019050919050565b60006020820190508181036000830152612e4581612e09565b9050919050565b7f455243373231456e756d657261626c653a20676c6f62616c20696e646578206f60008201527f7574206f6620626f756e64730000000000000000000000000000000000000000602082015250565b6000612ea8602c836125c7565b9150612eb382612e4c565b604082019050919050565b60006020820190508181036000830152612ed781612e9b565b9050919050565b7f4e487b7100000000000000000000000000000000000000000000000000000000600052603260045260246000fd5b7f4552433732313a20696e76616c696420746f6b656e2049440000000000000000600082015250565b6000612f436018836125c7565b9150612f4e82612f0d565b602082019050919050565b60006020820190508181036000830152612f7281612f36565b9050919050565b7f4552433732313a2061646472657373207a65726f206973206e6f74206120766160008201527f6c6964206f776e65720000000000000000000000000000000000000000000000602082015250565b6000612fd56029836125c7565b9150612fe082612f79565b604082019050919050565b6000602082019050818103600083015261300481612fc8565b9050919050565b7f4f776e61626c653a206e6577206f776e657220697320746865207a65726f206160008201527f6464726573730000000000000000000000000000000000000000000000000000602082015250565b60006130676026836125c7565b91506130728261300b565b604082019050919050565b600060208201905081810360008301526130968161305a565b9050919050565b7f4552433732313a207472616e736665722066726f6d20696e636f72726563742060008201527f6f776e6572000000000000000000000000000000000000000000000000000000602082015250565b60006130f96025836125c7565b91506131048261309d565b604082019050919050565b60006020820190508181036000830152613128816130ec565b9050919050565b7f4552433732313a207472616e7366657220746f20746865207a65726f2061646460008201527f7265737300000000000000000000000000000000000000000000000000000000602082015250565b600061318b6024836125c7565b91506131968261312f565b604082019050919050565b600060208201905081810360008301526131ba8161317e565b9050919050565b7f4e487b7100000000000000000000000000000000000000000000000000000000600052601160045260246000fd5b60006131fb8261266e565b91506132068361266e565b925082820390508181111561321e5761321d6131c1565b5b92915050565b600061322f8261266e565b915061323a8361266e565b9250828201905080821115613252576132516131c1565b5b92915050565b7f4f776e61626c653a2063616c6c6572206973206e6f7420746865206f776e6572600082015250565b600061328e6020836125c7565b915061329982613258565b602082019050919050565b600060208201905081810360008301526132bd81613281565b9050919050565b7f4552433732313a20617070726f766520746f2063616c6c657200000000000000600082015250565b60006132fa6019836125c7565b9150613305826132c4565b602082019050919050565b60006020820190508181036000830152613329816132ed565b9050919050565b7f4552433732313a207472616e7366657220746f206e6f6e20455243373231526560008201527f63656976657220696d706c656d656e7465720000000000000000000000000000602082015250565b600061338c6032836125c7565b915061339782613330565b604082019050919050565b600060208201905081810360008301526133bb8161337f565b9050919050565b600081905092915050565b60006133d8826125bc565b6133e281856133c2565b93506133f28185602086016125d8565b80840191505092915050565b600061340a82856133cd565b915061341682846133cd565b91508190509392505050565b7f45524337323155524953746f726167653a2055524920736574206f66206e6f6e60008201527f6578697374656e7420746f6b656e000000000000000000000000000000000000602082015250565b600061347e602e836125c7565b915061348982613422565b604082019050919050565b600060208201905081810360008301526134ad81613471565b9050919050565b60008190508160005260206000209050919050565b60006020601f8301049050919050565b600082821b905092915050565b6000600883026135167fffffffffffffffffffffffffffffffffffffffffffffffffffffffffffffffff826134d9565b61352086836134d9565b95508019841693508086168417925050509392505050565b6000819050919050565b600061355d6135586135538461266e565b613538565b61266e565b9050919050565b6000819050919050565b61357783613542565b61358b61358382613564565b8484546134e6565b825550505050565b600090565b6135a0613593565b6135ab81848461356e565b505050565b5b818110156135cf576135c4600082613598565b6001810190506135b1565b5050565b601f821115613614576135e5816134b4565b6135ee846134c9565b810160208510156135fd578190505b613611613609856134c9565b8301826135b0565b50505b505050565b600082821c905092915050565b600061363760001984600802613619565b1980831691505092915050565b60006136508383613626565b9150826002028217905092915050565b613669826125bc565b67ffffffffffffffff811115613682576136816128b9565b5b61368c8254612bd3565b6136978282856135d3565b600060209050601f8311600181146136ca57600084156136b8578287015190505b6136c28582613644565b86555061372a565b601f1984166136d8866134b4565b60005b82811015613700578489015182556001820191506020850194506020810190506136db565b8683101561371d5784890151613719601f891682613626565b8355505b6001600288020188555050505b505050505050565b7f5061757361626c653a206e6f7420706175736564000000000000000000000000600082015250565b60006137686014836125c7565b915061377382613732565b602082019050919050565b600060208201905081810360008301526137978161375b565b9050919050565b7f5061757361626c653a2070617573656400000000000000000000000000000000600082015250565b60006137d46010836125c7565b91506137df8261379e565b602082019050919050565b60006020820190508181036000830152613803816137c7565b9050919050565b600081519050919050565b600082825260208201905092915050565b60006138318261380a565b61383b8185613815565b935061384b8185602086016125d8565b61385481612602565b840191505092915050565b60006080820190506138746000830187612703565b6138816020830186612703565b61388e6040830185612799565b81810360608301526138a08184613826565b905095945050505050565b6000815190506138ba8161252d565b92915050565b6000602082840312156138d6576138d56124f7565b5b60006138e4848285016138ab565b91505092915050565b60006138f88261266e565b91507fffffffffffffffffffffffffffffffffffffffffffffffffffffffffffffffff820361392a576139296131c1565b5b600182019050919050565b7f4e487b7100000000000000000000000000000000000000000000000000000000600052601260045260246000fd5b600061396f8261266e565b915061397a8361266e565b92508261398a57613989613935565b5b828204905092915050565b60006139a08261266e565b91506139ab8361266e565b9250826139bb576139ba613935565b5b828206905092915050565b7f4552433732313a206d696e7420746f20746865207a65726f2061646472657373600082015250565b60006139fc6020836125c7565b9150613a07826139c6565b602082019050919050565b60006020820190508181036000830152613a2b816139ef565b9050919050565b7f4552433732313a20746f6b656e20616c7265616479206d696e74656400000000600082015250565b6000613a68601c836125c7565b9150613a7382613a32565b602082019050919050565b60006020820190508181036000830152613a9781613a5b565b9050919050565b7f4e487b7100000000000000000000000000000000000000000000000000000000600052603160045260246000fdfea2646970667358221220b59ae9bb6680a0261a10736bbd0c2546396dc00c6652c0b14c418dc50eda0dc864736f6c63430008110033",
  "linkReferences": {},
  "deployedLinkReferences": {}
}