{
  "_format": "hh-sol-artifact-1",
  "contractName": "RopstamToken",
  "sourceName": "contracts/RopstamToken.sol",
  "abi": [
    {
      "inputs": [],
      "stateMutability": "nonpayable",
      "type": "constructor"
    },
    {
      "anonymous": false,
      "inputs": [
        {
          "indexed": true,
          "internalType": "address",
          "name": "owner",
          "type": "address"
        },
        {
          "indexed": true,
          "internalType": "address",
          "name": "spender",
          "type": "address"
        },
        {
          "indexed": false,
          "internalType": "uint256",
          "name": "value",
          "type": "uint256"
        }
      ],
      "name": "Approval",
      "type": "event"
    },
    {
      "anonymous": false,
      "inputs": [
        {
          "indexed": true,
          "internalType": "address",
          "name": "from",
          "type": "address"
        },
        {
          "indexed": true,
          "internalType": "address",
          "name": "to",
          "type": "address"
        },
        {
          "indexed": false,
          "internalType": "uint256",
          "name": "value",
          "type": "uint256"
        }
      ],
      "name": "Transfer",
      "type": "event"
    },
    {
      "inputs": [
        {
          "internalType": "address",
          "name": "owner",
          "type": "address"
        },
        {
          "internalType": "address",
          "name": "spender",
          "type": "address"
        }
      ],
      "name": "allowance",
      "outputs": [
        {
          "internalType": "uint256",
          "name": "",
          "type": "uint256"
        }
      ],
      "stateMutability": "view",
      "type": "function"
    },
    {
      "inputs": [
        {
          "internalType": "address",
          "name": "spender",
          "type": "address"
        },
        {
          "internalType": "uint256",
          "name": "amount",
          "type": "uint256"
        }
      ],
      "name": "approve",
      "outputs": [
        {
          "internalType": "bool",
          "name": "",
          "type": "bool"
        }
      ],
      "stateMutability": "nonpayable",
      "type": "function"
    },
    {
      "inputs": [
        {
          "internalType": "address",
          "name": "account",
          "type": "address"
        }
      ],
      "name": "balanceOf",
      "outputs": [
        {
          "internalType": "uint256",
          "name": "",
          "type": "uint256"
        }
      ],
      "stateMutability": "view",
      "type": "function"
    },
    {
      "inputs": [
        {
          "internalType": "uint256",
          "name": "_amount",
          "type": "uint256"
        }
      ],
      "name": "calculateFee",
      "outputs": [
        {
          "internalType": "uint256",
          "name": "",
          "type": "uint256"
        }
      ],
      "stateMutability": "view",
      "type": "function"
    },
    {
      "inputs": [
        {
          "internalType": "uint256",
          "name": "_amount",
          "type": "uint256"
        },
        {
          "internalType": "uint256",
          "name": "fee",
          "type": "uint256"
        }
      ],
      "name": "calculateTransfer",
      "outputs": [
        {
          "internalType": "uint256",
          "name": "",
          "type": "uint256"
        }
      ],
      "stateMutability": "pure",
      "type": "function"
    },
    {
      "inputs": [],
      "name": "decimals",
      "outputs": [
        {
          "internalType": "uint8",
          "name": "",
          "type": "uint8"
        }
      ],
      "stateMutability": "view",
      "type": "function"
    },
    {
      "inputs": [
        {
          "internalType": "address",
          "name": "spender",
          "type": "address"
        },
        {
          "internalType": "uint256",
          "name": "subtractedValue",
          "type": "uint256"
        }
      ],
      "name": "decreaseAllowance",
      "outputs": [
        {
          "internalType": "bool",
          "name": "",
          "type": "bool"
        }
      ],
      "stateMutability": "nonpayable",
      "type": "function"
    },
    {
      "inputs": [
        {
          "internalType": "address",
          "name": "spender",
          "type": "address"
        },
        {
          "internalType": "uint256",
          "name": "addedValue",
          "type": "uint256"
        }
      ],
      "name": "increaseAllowance",
      "outputs": [
        {
          "internalType": "bool",
          "name": "",
          "type": "bool"
        }
      ],
      "stateMutability": "nonpayable",
      "type": "function"
    },
    {
      "inputs": [],
      "name": "name",
      "outputs": [
        {
          "internalType": "string",
          "name": "",
          "type": "string"
        }
      ],
      "stateMutability": "view",
      "type": "function"
    },
    {
      "inputs": [],
      "name": "symbol",
      "outputs": [
        {
          "internalType": "string",
          "name": "",
          "type": "string"
        }
      ],
      "stateMutability": "view",
      "type": "function"
    },
    {
      "inputs": [],
      "name": "totalSupply",
      "outputs": [
        {
          "internalType": "uint256",
          "name": "",
          "type": "uint256"
        }
      ],
      "stateMutability": "view",
      "type": "function"
    },
    {
      "inputs": [
        {
          "internalType": "address",
          "name": "to",
          "type": "address"
        },
        {
          "internalType": "uint256",
          "name": "amount",
          "type": "uint256"
        }
      ],
      "name": "transfer",
      "outputs": [
        {
          "internalType": "bool",
          "name": "",
          "type": "bool"
        }
      ],
      "stateMutability": "nonpayable",
      "type": "function"
    },
    {
      "inputs": [
        {
          "internalType": "address",
          "name": "from",
          "type": "address"
        },
        {
          "internalType": "address",
          "name": "to",
          "type": "address"
        },
        {
          "internalType": "uint256",
          "name": "amount",
          "type": "uint256"
        }
      ],
      "name": "transferFrom",
      "outputs": [
        {
          "internalType": "bool",
          "name": "",
          "type": "bool"
        }
      ],
      "stateMutability": "nonpayable",
      "type": "function"
    }
  ],
  "bytecode": "0x608060405260146000806101000a81548160ff021916908360ff1602179055503480156200002c57600080fd5b506040518060400160405280600781526020017f526f707374616d000000000000000000000000000000000000000000000000008152506040518060400160405280600281526020017f52540000000000000000000000000000000000000000000000000000000000008152508160049081620000aa9190620004ff565b508060059081620000bc9190620004ff565b505050620000fe33620000d46200010460201b60201c565b600a620000e2919062000776565b62895440620000f29190620007c7565b6200010d60201b60201c565b620008fe565b60006012905090565b600073ffffffffffffffffffffffffffffffffffffffff168273ffffffffffffffffffffffffffffffffffffffff16036200017f576040517f08c379a0000000000000000000000000000000000000000000000000000000008152600401620001769062000873565b60405180910390fd5b62000193600083836200027b60201b60201c565b8060036000828254620001a7919062000895565b9250508190555080600160008473ffffffffffffffffffffffffffffffffffffffff1673ffffffffffffffffffffffffffffffffffffffff168152602001908152602001600020600082825401925050819055508173ffffffffffffffffffffffffffffffffffffffff16600073ffffffffffffffffffffffffffffffffffffffff167fddf252ad1be2c89b69c2b068fc378daa952ba7f163c4a11628f55a4df523b3ef836040516200025b9190620008e1565b60405180910390a362000277600083836200028060201b60201c565b5050565b505050565b505050565b600081519050919050565b7f4e487b7100000000000000000000000000000000000000000000000000000000600052604160045260246000fd5b7f4e487b7100000000000000000000000000000000000000000000000000000000600052602260045260246000fd5b600060028204905060018216806200030757607f821691505b6020821081036200031d576200031c620002bf565b5b50919050565b60008190508160005260206000209050919050565b60006020601f8301049050919050565b600082821b905092915050565b600060088302620003877fffffffffffffffffffffffffffffffffffffffffffffffffffffffffffffffff8262000348565b62000393868362000348565b95508019841693508086168417925050509392505050565b6000819050919050565b6000819050919050565b6000620003e0620003da620003d484620003ab565b620003b5565b620003ab565b9050919050565b6000819050919050565b620003fc83620003bf565b620004146200040b82620003e7565b84845462000355565b825550505050565b600090565b6200042b6200041c565b62000438818484620003f1565b505050565b5b8181101562000460576200045460008262000421565b6001810190506200043e565b5050565b601f821115620004af57620004798162000323565b620004848462000338565b8101602085101562000494578190505b620004ac620004a38562000338565b8301826200043d565b50505b505050565b600082821c905092915050565b6000620004d460001984600802620004b4565b1980831691505092915050565b6000620004ef8383620004c1565b9150826002028217905092915050565b6200050a8262000285565b67ffffffffffffffff81111562000526576200052562000290565b5b620005328254620002ee565b6200053f82828562000464565b600060209050601f83116001811462000577576000841562000562578287015190505b6200056e8582620004e1565b865550620005de565b601f198416620005878662000323565b60005b82811015620005b1578489015182556001820191506020850194506020810190506200058a565b86831015620005d15784890151620005cd601f891682620004c1565b8355505b6001600288020188555050505b505050505050565b7f4e487b7100000000000000000000000000000000000000000000000000000000600052601160045260246000fd5b60008160011c9050919050565b6000808291508390505b600185111562000674578086048111156200064c576200064b620005e6565b5b60018516156200065c5780820291505b80810290506200066c8562000615565b94506200062c565b94509492505050565b6000826200068f576001905062000762565b816200069f576000905062000762565b8160018114620006b85760028114620006c357620006f9565b600191505062000762565b60ff841115620006d857620006d7620005e6565b5b8360020a915084821115620006f257620006f1620005e6565b5b5062000762565b5060208310610133831016604e8410600b8410161715620007335782820a9050838111156200072d576200072c620005e6565b5b62000762565b62000742848484600162000622565b925090508184048111156200075c576200075b620005e6565b5b81810290505b9392505050565b600060ff82169050919050565b60006200078382620003ab565b9150620007908362000769565b9250620007bf7fffffffffffffffffffffffffffffffffffffffffffffffffffffffffffffffff84846200067d565b905092915050565b6000620007d482620003ab565b9150620007e183620003ab565b9250828202620007f181620003ab565b915082820484148315176200080b576200080a620005e6565b5b5092915050565b600082825260208201905092915050565b7f45524332303a206d696e7420746f20746865207a65726f206164647265737300600082015250565b60006200085b601f8362000812565b9150620008688262000823565b602082019050919050565b600060208201905081810360008301526200088e816200084c565b9050919050565b6000620008a282620003ab565b9150620008af83620003ab565b9250828201905080821115620008ca57620008c9620005e6565b5b92915050565b620008db81620003ab565b82525050565b6000602082019050620008f86000830184620008d0565b92915050565b6114f5806200090e6000396000f3fe608060405234801561001057600080fd5b50600436106100cf5760003560e01c806370a082311161008c57806399a5d7471161006657806399a5d7471461023c578063a457c2d71461026c578063a9059cbb1461029c578063dd62ed3e146102cc576100cf565b806370a08231146101be57806377f4e485146101ee57806395d89b411461021e576100cf565b806306fdde03146100d4578063095ea7b3146100f257806318160ddd1461012257806323b872dd14610140578063313ce56714610170578063395093511461018e575b600080fd5b6100dc6102fc565b6040516100e99190610c8f565b60405180910390f35b61010c60048036038101906101079190610d4a565b61038e565b6040516101199190610da5565b60405180910390f35b61012a6103b1565b6040516101379190610dcf565b60405180910390f35b61015a60048036038101906101559190610dea565b6103bb565b6040516101679190610da5565b60405180910390f35b6101786103ea565b6040516101859190610e59565b60405180910390f35b6101a860048036038101906101a39190610d4a565b6103f3565b6040516101b59190610da5565b60405180910390f35b6101d860048036038101906101d39190610e74565b61042a565b6040516101e59190610dcf565b60405180910390f35b61020860048036038101906102039190610ea1565b610473565b6040516102159190610dcf565b60405180910390f35b610226610489565b6040516102339190610c8f565b60405180910390f35b61025660048036038101906102519190610ee1565b61051b565b6040516102639190610dcf565b60405180910390f35b61028660048036038101906102819190610d4a565b61054c565b6040516102939190610da5565b60405180910390f35b6102b660048036038101906102b19190610d4a565b6105c3565b6040516102c39190610da5565b60405180910390f35b6102e660048036038101906102e19190610f0e565b6105e6565b6040516102f39190610dcf565b60405180910390f35b60606004805461030b90610f7d565b80601f016020809104026020016040519081016040528092919081815260200182805461033790610f7d565b80156103845780601f1061035957610100808354040283529160200191610384565b820191906000526020600020905b81548152906001019060200180831161036757829003601f168201915b5050505050905090565b60008061039961066d565b90506103a6818585610675565b600191505092915050565b6000600354905090565b6000806103c661066d565b90506103d385828561083e565b6103de8585856108ca565b60019150509392505050565b60006012905090565b6000806103fe61066d565b905061041f81858561041085896105e6565b61041a9190610fdd565b610675565b600191505092915050565b6000600160008373ffffffffffffffffffffffffffffffffffffffff1673ffffffffffffffffffffffffffffffffffffffff168152602001908152602001600020549050919050565b600081836104819190611011565b905092915050565b60606005805461049890610f7d565b80601f01602080910402602001604051908101604052809291908181526020018280546104c490610f7d565b80156105115780601f106104e657610100808354040283529160200191610511565b820191906000526020600020905b8154815290600101906020018083116104f457829003601f168201915b5050505050905090565b6000606460008054906101000a900460ff1660ff168361053b9190611045565b61054591906110b6565b9050919050565b60008061055761066d565b9050600061056582866105e6565b9050838110156105aa576040517f08c379a00000000000000000000000000000000000000000000000000000000081526004016105a190611159565b60405180910390fd5b6105b78286868403610675565b60019250505092915050565b6000806105ce61066d565b90506105db8185856108ca565b600191505092915050565b6000600260008473ffffffffffffffffffffffffffffffffffffffff1673ffffffffffffffffffffffffffffffffffffffff16815260200190815260200160002060008373ffffffffffffffffffffffffffffffffffffffff1673ffffffffffffffffffffffffffffffffffffffff16815260200190815260200160002054905092915050565b600033905090565b600073ffffffffffffffffffffffffffffffffffffffff168373ffffffffffffffffffffffffffffffffffffffff16036106e4576040517f08c379a00000000000000000000000000000000000000000000000000000000081526004016106db906111eb565b60405180910390fd5b600073ffffffffffffffffffffffffffffffffffffffff168273ffffffffffffffffffffffffffffffffffffffff1603610753576040517f08c379a000000000000000000000000000000000000000000000000000000000815260040161074a9061127d565b60405180910390fd5b80600260008573ffffffffffffffffffffffffffffffffffffffff1673ffffffffffffffffffffffffffffffffffffffff16815260200190815260200160002060008473ffffffffffffffffffffffffffffffffffffffff1673ffffffffffffffffffffffffffffffffffffffff168152602001908152602001600020819055508173ffffffffffffffffffffffffffffffffffffffff168373ffffffffffffffffffffffffffffffffffffffff167f8c5be1e5ebec7d5bd14f71427d1e84f3dd0314c0f7b2291e5b200ac8c7c3b925836040516108319190610dcf565b60405180910390a3505050565b600061084a84846105e6565b90507fffffffffffffffffffffffffffffffffffffffffffffffffffffffffffffffff81146108c457818110156108b6576040517f08c379a00000000000000000000000000000000000000000000000000000000081526004016108ad906112e9565b60405180910390fd5b6108c38484848403610675565b5b50505050565b600073ffffffffffffffffffffffffffffffffffffffff168373ffffffffffffffffffffffffffffffffffffffff1603610939576040517f08c379a00000000000000000000000000000000000000000000000000000000081526004016109309061137b565b60405180910390fd5b600073ffffffffffffffffffffffffffffffffffffffff168273ffffffffffffffffffffffffffffffffffffffff16036109a8576040517f08c379a000000000000000000000000000000000000000000000000000000000815260040161099f9061140d565b60405180910390fd5b6109b3838383610bf5565b6000600160008573ffffffffffffffffffffffffffffffffffffffff1673ffffffffffffffffffffffffffffffffffffffff16815260200190815260200160002054905081811015610a3a576040517f08c379a0000000000000000000000000000000000000000000000000000000008152600401610a319061149f565b60405180910390fd5b6000610a458361051b565b90506000610a538483610473565b9050808303600160008873ffffffffffffffffffffffffffffffffffffffff1673ffffffffffffffffffffffffffffffffffffffff1681526020019081526020016000208190555080600160008773ffffffffffffffffffffffffffffffffffffffff1673ffffffffffffffffffffffffffffffffffffffff1681526020019081526020016000206000828254019250508190555081600160008873ffffffffffffffffffffffffffffffffffffffff1673ffffffffffffffffffffffffffffffffffffffff1681526020019081526020016000205403600160008873ffffffffffffffffffffffffffffffffffffffff1673ffffffffffffffffffffffffffffffffffffffff16815260200190815260200160002081905550816003600082825403925050819055508473ffffffffffffffffffffffffffffffffffffffff168673ffffffffffffffffffffffffffffffffffffffff167fddf252ad1be2c89b69c2b068fc378daa952ba7f163c4a11628f55a4df523b3ef86604051610bda9190610dcf565b60405180910390a3610bed868686610bfa565b505050505050565b505050565b505050565b600081519050919050565b600082825260208201905092915050565b60005b83811015610c39578082015181840152602081019050610c1e565b60008484015250505050565b6000601f19601f8301169050919050565b6000610c6182610bff565b610c6b8185610c0a565b9350610c7b818560208601610c1b565b610c8481610c45565b840191505092915050565b60006020820190508181036000830152610ca98184610c56565b905092915050565b600080fd5b600073ffffffffffffffffffffffffffffffffffffffff82169050919050565b6000610ce182610cb6565b9050919050565b610cf181610cd6565b8114610cfc57600080fd5b50565b600081359050610d0e81610ce8565b92915050565b6000819050919050565b610d2781610d14565b8114610d3257600080fd5b50565b600081359050610d4481610d1e565b92915050565b60008060408385031215610d6157610d60610cb1565b5b6000610d6f85828601610cff565b9250506020610d8085828601610d35565b9150509250929050565b60008115159050919050565b610d9f81610d8a565b82525050565b6000602082019050610dba6000830184610d96565b92915050565b610dc981610d14565b82525050565b6000602082019050610de46000830184610dc0565b92915050565b600080600060608486031215610e0357610e02610cb1565b5b6000610e1186828701610cff565b9350506020610e2286828701610cff565b9250506040610e3386828701610d35565b9150509250925092565b600060ff82169050919050565b610e5381610e3d565b82525050565b6000602082019050610e6e6000830184610e4a565b92915050565b600060208284031215610e8a57610e89610cb1565b5b6000610e9884828501610cff565b91505092915050565b60008060408385031215610eb857610eb7610cb1565b5b6000610ec685828601610d35565b9250506020610ed785828601610d35565b9150509250929050565b600060208284031215610ef757610ef6610cb1565b5b6000610f0584828501610d35565b91505092915050565b60008060408385031215610f2557610f24610cb1565b5b6000610f3385828601610cff565b9250506020610f4485828601610cff565b9150509250929050565b7f4e487b7100000000000000000000000000000000000000000000000000000000600052602260045260246000fd5b60006002820490506001821680610f9557607f821691505b602082108103610fa857610fa7610f4e565b5b50919050565b7f4e487b7100000000000000000000000000000000000000000000000000000000600052601160045260246000fd5b6000610fe882610d14565b9150610ff383610d14565b925082820190508082111561100b5761100a610fae565b5b92915050565b600061101c82610d14565b915061102783610d14565b925082820390508181111561103f5761103e610fae565b5b92915050565b600061105082610d14565b915061105b83610d14565b925082820261106981610d14565b915082820484148315176110805761107f610fae565b5b5092915050565b7f4e487b7100000000000000000000000000000000000000000000000000000000600052601260045260246000fd5b60006110c182610d14565b91506110cc83610d14565b9250826110dc576110db611087565b5b828204905092915050565b7f45524332303a2064656372656173656420616c6c6f77616e63652062656c6f7760008201527f207a65726f000000000000000000000000000000000000000000000000000000602082015250565b6000611143602583610c0a565b915061114e826110e7565b604082019050919050565b6000602082019050818103600083015261117281611136565b9050919050565b7f45524332303a20617070726f76652066726f6d20746865207a65726f2061646460008201527f7265737300000000000000000000000000000000000000000000000000000000602082015250565b60006111d5602483610c0a565b91506111e082611179565b604082019050919050565b60006020820190508181036000830152611204816111c8565b9050919050565b7f45524332303a20617070726f766520746f20746865207a65726f20616464726560008201527f7373000000000000000000000000000000000000000000000000000000000000602082015250565b6000611267602283610c0a565b91506112728261120b565b604082019050919050565b600060208201905081810360008301526112968161125a565b9050919050565b7f45524332303a20696e73756666696369656e7420616c6c6f77616e6365000000600082015250565b60006112d3601d83610c0a565b91506112de8261129d565b602082019050919050565b60006020820190508181036000830152611302816112c6565b9050919050565b7f45524332303a207472616e736665722066726f6d20746865207a65726f20616460008201527f6472657373000000000000000000000000000000000000000000000000000000602082015250565b6000611365602583610c0a565b915061137082611309565b604082019050919050565b6000602082019050818103600083015261139481611358565b9050919050565b7f45524332303a207472616e7366657220746f20746865207a65726f206164647260008201527f6573730000000000000000000000000000000000000000000000000000000000602082015250565b60006113f7602383610c0a565b91506114028261139b565b604082019050919050565b60006020820190508181036000830152611426816113ea565b9050919050565b7f45524332303a207472616e7366657220616d6f756e742065786365656473206260008201527f616c616e63650000000000000000000000000000000000000000000000000000602082015250565b6000611489602683610c0a565b91506114948261142d565b604082019050919050565b600060208201905081810360008301526114b88161147c565b905091905056fea26469706673582212201ab6445028022819181ae5d3df81f89ca21bef25b04fa66d20078f256290181364736f6c63430008110033",
  "linkReferences": {},
  "deployedLinkReferences": {}
}